S017000041546D6567613332206472697665722E73726563CD
S11300000C943E000C9453000C9453000C94530035
S11300100C9453000C9453000C9453000C94530010
S11300200C9453000C9453000C9453000C94530000
S11300300C9453000C9453000C9453000C945300F0
S11300400C9453000C9453000C9453000C945300E0
S11300500C9453009100A500B900CD00E100F50017
S113006009011D013101450166017A018E01A201D8
S1130070B601CA01DE01F20106021A0211241FBEF2
S1130080CFE5D8E0DEBFCDBF10E0A0E6B0E0EEE5FE
S1130090F9E002C005900D92A036B107D9F70E948D
S11300A07F030C94AD040C940000CF93C82F61110E
S11300B013C041E00E94360241E061E08C2F0E94AF
S11300C0360241E062E08C2F0E94360241E063E098
S11300D08C2F0E94360215C0613099F441E064E02F
S11300E00E94360241E065E08C2F0E94360241E016
S11300F066E08C2F0E94360241E067E08C2F0E945C
S11301003602CF910895CF93C82F6111D2C050E029
S11301104A30510508F0A1C1FA01E65DFF4F0C9485
S1130120A70440E060E00E94A60240E061E08C2F5A
S11301300E94A60240E062E08C2F0E94A60240E0EA
S113014063E08C2F0E94A60288C141E060E00E9417
S1130150A60240E061E08C2F0E94A60240E062E02B
S11301608C2F0E94A60240E063E08C2F0E94A6021E
S113017074C140E060E00E94A60241E061E08C2F7F
S11301800E94A60240E062E08C2F0E94A60240E09A
S113019063E08C2F0E94A60260C141E060E00E94EF
S11301A0A60241E061E08C2F0E94A60240E062E0DA
S11301B08C2F0E94A60240E063E08C2F0E94A602CE
S11301C04CC140E060E00E94A60240E061E08C2F58
S11301D00E94A60241E062E08C2F0E94A60240E049
S11301E063E08C2F0E94A60238C141E060E00E94C7
S11301F0A60240E061E08C2F0E94A60241E062E08A
S11302008C2F0E94A60240E063E08C2F0E94A6027D
S113021024C140E060E00E94A60241E061E08C2F2E
S11302200E94A60241E062E08C2F0E94A60240E0F8
S113023063E08C2F0E94A60210C141E060E00E949E
S1130240A60241E061E08C2F0E94A60241E062E038
S11302508C2F0E94A60240E063E08C2F0E94A6022D
S1130260FCC040E060E00E94A60240E061E08C2F08
S11302700E94A60240E062E08C2F0E94A60241E0A8
S113028063E08C2F0E94A602E8C041E060E00E9477
S1130290A60240E061E08C2F0E94A60240E062E0EA
S11302A08C2F0E94A60241E063E08C2F0E94A602DC
S11302B0D4C0613009F0D1C050E04A30510508F093
S11302C0CCC0FA01EC5CFF4F0C94A70440E064E05E
S11302D00E94A60240E065E08C2F0E94A60240E046
S11302E066E08C2F0E94A60240E067E08C2F0E94FB
S11302F0A602B3C041E064E00E94A60240E065E0CB
S11303008C2F0E94A60240E066E08C2F0E94A60279
S113031040E067E08C2F0E94A6029FC040E064E0AA
S11303200E94A60241E065E08C2F0E94A60240E0F4
S113033066E08C2F0E94A60240E067E08C2F0E94AA
S1130340A6028BC041E064E00E94A60241E065E0A1
S11303508C2F0E94A60240E066E08C2F0E94A60229
S113036040E067E08C2F0E94A60277C040E064E082
S11303700E94A60240E065E08C2F0E94A60241E0A4
S113038066E08C2F0E94A60240E067E08C2F0E945A
S1130390A60263C041E064E00E94A60240E065E07A
S11303A08C2F0E94A60241E066E08C2F0E94A602D8
S11303B040E067E08C2F0E94A6024FC040E064E05A
S11303C00E94A60241E065E08C2F0E94A60241E053
S11303D066E08C2F0E94A60240E067E08C2F0E940A
S11303E0A6023BC041E064E00E94A60241E065E051
S11303F08C2F0E94A60241E066E08C2F0E94A60288
S113040040E067E08C2F0E94A60227C040E064E031
S11304100E94A60240E065E08C2F0E94A60240E004
S113042066E08C2F0E94A60241E067E08C2F0E94B8
S1130430A60213C041E064E00E94A60240E065E029
S11304408C2F0E94A60240E066E08C2F0E94A60238
S113045041E067E08C2F0E94A602CF91089540E00E
S11304600E94360208950E9416030895823419F1F9
S113047018F4813439F008958334B1F1843409F4E3
S11304804CC00895413059F42AB381E090E002C091
S1130490880F991F6A95E2F7822B8ABB08952AB3C5
S11304A081E090E002C0880F991F6A95E2F7809579
S11304B082238ABB0895413059F427B381E090E048
S11304C002C0880F991F6A95E2F7822B87BB0895B3
S11304D027B381E090E002C0880F991F6A95E2F784
S11304E08095822387BB0895413059F424B381E079
S11304F090E002C0880F991F6A95E2F7822B84BBB3
S1130500089524B381E090E002C0880F991F6A9592
S1130510E2F78095822384BB0895413059F421B3D6
S113052081E090E002C0880F991F6A95E2F7822B60
S113053081BB089521B381E090E002C0880F991F28
S11305406A95E2F78095822381BB0895823419F17C
S113055018F4813439F008958334B1F1843409F402
S11305604CC00895413059F42BB381E090E002C0AF
S1130570880F991F6A95E2F7822B8BBB08952BB3E2
S113058081E090E002C0880F991F6A95E2F7809598
S113059082238BBB0895413059F428B381E090E065
S11305A002C0880F991F6A95E2F7822B88BB0895D1
S11305B028B381E090E002C0880F991F6A95E2F7A2
S11305C08095822388BB0895413059F425B381E096
S11305D090E002C0880F991F6A95E2F7822B85BBD1
S11305E0089525B381E090E002C0880F991F6A95B1
S11305F0E2F78095822385BB0895413059F422B3F4
S113060081E090E002C0880F991F6A95E2F7822B7F
S113061082BB089522B381E090E002C0880F991F45
S11306206A95E2F78095822382BB08958234E9F0CB
S113063018F4813431F055C0833459F18434E9F12C
S113064050C049B381E090E09C01062E02C0220F05
S1130650331F0A94E2F7842F90E08223932302C08D
S1130660959587956A95E2F7089546B381E090E001
S11306709C01062E02C0220F331F0A94E2F7842F36
S113068090E08223932302C0959587956A95E2F7BB
S1130690089543B381E090E09C01062E02C0220F2E
S11306A0331F0A94E2F7842F90E08223932302C03D
S11306B0959587956A95E2F7089540B381E090E0B7
S11306C09C01062E02C0220F331F0A94E2F7842FE6
S11306D090E08223932302C0959587956A95E2F76B
S11306E0089580E0089541E00E943602089541E0B3
S11306F00E94A602089540E00E94A602089560E0C8
S113070081E40E94730361E081E40E94730362E068
S113071081E40E94730360E082E40E942F0261E09E
S113072082E40E942F0262E082E40E942F0263E0CE
S113073082E40E942F0267E082E40E942F0260E0BC
S113074083E40E94550061E083E40E94550060E068
S113075084E40E94550061E084E40E94550000E0B6
S113076010E0D0E0C0E04C2F60E083E40E948300FE
S11307704D2F61E083E40E948300412F60E084E414
S11307800E948300402F61E084E40E94830060E0C3
S113079081E40E947B0361E081E40E947B0362E0C8
S11307A081E40E947B0360E082E40E943302882398
S11307B051F00F5F2FEF84E39CE021508040904084
S11307C0E1F700C0000061E082E40E943302882364
S11307D051F01F5F2FEF84E39CE021508040904054
S11307E0E1F700C0000062E082E40E943302882343
S11307F051F0DF5F2FEF84E39CE021508040904074
S1130800E1F700C0000063E082E40E943302882321
S113081051F0CF5F2FEF84E39CE021508040904063
S1130820E1F700C0000067E082E40E9433028823FD
S113083009F499CF2FEF84E39CE02150804090404D
S1130840E1F700C0000061E081E40E9477032FEF2C
S113085089E698E1215080409040E1F700C0000013
S113086061E081E40E947B032FEF89E698E1215047
S113087080409040E1F700C0000061E081E40E9404
S113088077032FEF89E698E1215080409040E1F70B
S113089000C0000061E081E40E947B032FEF89E641
S11308A098E1215080409040E1F700C0000061E0F1
S11308B081E40E9477032FEF89E698E1215080407C
S11308C09040E1F700C0000061E081E40E947B03F6
S11308D028EE33E0029FC001039F900D1124AC0168
S11308E024E6129F400D511D11248D2F90E0BC0170
S11308F0660F771F9C01220F331F220F331F220F15
S1130900331FCB01820F931F840F951F8C0F911DF2
S1130910823D944071F460E081E40E9477038FEF9C
S11309209DE329E4815090402040E1F700C000009D
S11309301ACF62E081E40E9477038FEF9DE329E4FC
S1130940815090402040E1F700C000000CCFEE0F32
S1110950FF1F0590F491E02D0994F894FFCF59
S9030000FC
