S017000041546D6567613332206472697665722E73726563CD
S11300000C943E000C9453000C9453000C94530035
S11300100C9453000C9453000C9453000C94530010
S11300200C9453000C9453000C9453000C94530000
S11300300C9453000C9453000C9453000C945300F0
S11300400C9453000C9453000C9453000C945300E0
S11300500C9453009100A500B900CD00E100F50017
S113006009011D013101450166017A018E01A201D8
S1130070B601CA01DE01F20106021A0211241FBEF2
S1130080CFE5D8E0DEBFCDBF10E0A0E6B0E0EAE700
S1130090F6E002C005900D92A036B107D9F70E9490
S11300A00F030C943B030C940000CF93C82F6111F1
S11300B013C041E00E942F0241E061E08C2F0E94B6
S11300C02F0241E062E08C2F0E942F0241E063E0A6
S11300D08C2F0E942F0215C0613099F441E064E036
S11300E00E942F0241E065E08C2F0E942F0241E024
S11300F066E08C2F0E942F0241E067E08C2F0E9463
S11301002F02CF910895CF93C82F6111D2C050E030
S11301104A30510508F0A1C1FA01E65DFF4F0C9485
S1130120350340E060E00E949F0240E061E08C2FD4
S11301300E949F0240E062E08C2F0E949F0240E0F8
S113014063E08C2F0E949F0288C141E060E00E941E
S11301509F0240E061E08C2F0E949F0240E062E039
S11301608C2F0E949F0240E063E08C2F0E949F022C
S113017074C140E060E00E949F0241E061E08C2F86
S11301800E949F0240E062E08C2F0E949F0240E0A8
S113019063E08C2F0E949F0260C141E060E00E94F6
S11301A09F0241E061E08C2F0E949F0240E062E0E8
S11301B08C2F0E949F0240E063E08C2F0E949F02DC
S11301C04CC140E060E00E949F0240E061E08C2F5F
S11301D00E949F0241E062E08C2F0E949F0240E057
S11301E063E08C2F0E949F0238C141E060E00E94CE
S11301F09F0240E061E08C2F0E949F0241E062E098
S11302008C2F0E949F0240E063E08C2F0E949F028B
S113021024C140E060E00E949F0241E061E08C2F35
S11302200E949F0241E062E08C2F0E949F0240E006
S113023063E08C2F0E949F0210C141E060E00E94A5
S11302409F0241E061E08C2F0E949F0241E062E046
S11302508C2F0E949F0240E063E08C2F0E949F023B
S1130260FCC040E060E00E949F0240E061E08C2F0F
S11302700E949F0240E062E08C2F0E949F0241E0B6
S113028063E08C2F0E949F02E8C041E060E00E947E
S11302909F0240E061E08C2F0E949F0240E062E0F8
S11302A08C2F0E949F0241E063E08C2F0E949F02EA
S11302B0D4C0613009F0D1C050E04A30510508F093
S11302C0CCC0FA01EC5CFF4F0C94350340E064E0D1
S11302D00E949F0240E065E08C2F0E949F0240E054
S11302E066E08C2F0E949F0240E067E08C2F0E9402
S11302F09F02B3C041E064E00E949F0240E065E0D9
S11303008C2F0E949F0240E066E08C2F0E949F0287
S113031040E067E08C2F0E949F029FC040E064E0B1
S11303200E949F0241E065E08C2F0E949F0240E002
S113033066E08C2F0E949F0240E067E08C2F0E94B1
S11303409F028BC041E064E00E949F0241E065E0AF
S11303508C2F0E949F0240E066E08C2F0E949F0237
S113036040E067E08C2F0E949F0277C040E064E089
S11303700E949F0240E065E08C2F0E949F0241E0B2
S113038066E08C2F0E949F0240E067E08C2F0E9461
S11303909F0263C041E064E00E949F0240E065E088
S11303A08C2F0E949F0241E066E08C2F0E949F02E6
S11303B040E067E08C2F0E949F024FC040E064E061
S11303C00E949F0241E065E08C2F0E949F0241E061
S11303D066E08C2F0E949F0240E067E08C2F0E9411
S11303E09F023BC041E064E00E949F0241E065E05F
S11303F08C2F0E949F0241E066E08C2F0E949F0296
S113040040E067E08C2F0E949F0227C040E064E038
S11304100E949F0240E065E08C2F0E949F0240E012
S113042066E08C2F0E949F0241E067E08C2F0E94BF
S11304309F0213C041E064E00E949F0240E065E037
S11304408C2F0E949F0240E066E08C2F0E949F0246
S113045041E067E08C2F0E949F02CF91089582347F
S113046019F118F4813439F008958334B1F18434E6
S113047009F44CC00895413059F42AB381E090E066
S113048002C0880F991F6A95E2F7822B8ABB0895F0
S11304902AB381E090E002C0880F991F6A95E2F7C1
S11304A0809582238ABB0895413059F427B381E0B3
S11304B090E002C0880F991F6A95E2F7822B87BBF0
S11304C0089527B381E090E002C0880F991F6A95D0
S11304D0E2F78095822387BB0895413059F424B311
S11304E081E090E002C0880F991F6A95E2F7822BA1
S11304F084BB089524B381E090E002C0880F991F63
S11305006A95E2F78095822384BB0895413059F4BB
S113051021B381E090E002C0880F991F6A95E2F749
S1130520822B81BB089521B381E090E002C0880F43
S1130530991F6A95E2F78095822381BB08958234DE
S113054019F118F4813439F008958334B1F1843405
S113055009F44CC00895413059F42BB381E090E084
S113056002C0880F991F6A95E2F7822B8BBB08950E
S11305702BB381E090E002C0880F991F6A95E2F7DF
S1130580809582238BBB0895413059F428B381E0D0
S113059090E002C0880F991F6A95E2F7822B88BB0E
S11305A0089528B381E090E002C0880F991F6A95EE
S11305B0E2F78095822388BB0895413059F425B32E
S11305C081E090E002C0880F991F6A95E2F7822BC0
S11305D085BB089525B381E090E002C0880F991F80
S11305E06A95E2F78095822385BB0895413059F4DA
S11305F022B381E090E002C0880F991F6A95E2F768
S1130600822B82BB089522B381E090E002C0880F60
S1130610991F6A95E2F78095822382BB089560E072
S113062083E40E94550061E083E40E945500D0E019
S113063019C04D2F60E083E40E948300C0E00FC026
S11306404C2F61E083E40E9483002FEF80E792E067
S1130650215080409040E1F700C00000CF5FCA30D5
S113066078F3DF5FDA3028F3E2CFEE0FFF1F059057
S10D0670F491E02D0994F894FFCFF3
S9030000FC
