S017000041546D6567613332206472697665722E73726563CD
S11300000C942A000C94B7010C943F000C943F000C
S11300100C943F000C943F000C943F000C943F0060
S11300200C943F000C943F000C943F000C943F0050
S11300300C943F000C943F000C943F000C943F0040
S11300400C943F000C943F000C943F000C943F0030
S11300500C943F0011241FBECFE5D8E0DEBFCDBF16
S113006010E0A0E6B0E0E2E5F4E002C005900D92F5
S1130070A036B107D9F70E948D010C9427020C9485
S11300800000823419F118F4813439F0089583346E
S1130090B1F1843409F44CC00895413059F42AB3C1
S11300A081E090E002C0880F991F6A95E2F7822BE5
S11300B08ABB08952AB381E090E002C0880F991F9B
S11300C06A95E2F7809582238ABB0895413059F4FA
S11300D027B381E090E002C0880F991F6A95E2F788
S11300E0822B87BB089527B381E090E002C0880F7C
S11300F0991F6A95E2F78095822387BB0895413062
S113010059F424B381E090E002C0880F991F6A95E6
S1130110E2F7822B84BB089524B381E090E002C00F
S1130120880F991F6A95E2F78095822384BB08950E
S1130130413059F421B381E090E002C0880F991F47
S11301406A95E2F7822B81BB089521B381E090E0A8
S113015002C0880F991F6A95E2F78095822381BBBC
S11301600895823419F118F4813439F008958334F0
S1130170B1F1843409F44CC00895413059F42BB3DF
S113018081E090E002C0880F991F6A95E2F7822B04
S11301908BBB08952BB381E090E002C0880F991FB8
S11301A06A95E2F7809582238BBB0895413059F418
S11301B028B381E090E002C0880F991F6A95E2F7A6
S11301C0822B88BB089528B381E090E002C0880F99
S11301D0991F6A95E2F78095822388BB0895413080
S11301E059F425B381E090E002C0880F991F6A9505
S11301F0E2F7822B85BB089525B381E090E002C02D
S1130200880F991F6A95E2F78095822385BB08952C
S1130210413059F422B381E090E002C0880F991F65
S11302206A95E2F7822B82BB089522B381E090E0C5
S113023002C0880F991F6A95E2F78095822382BBDA
S11302400895813041F018F0823049F008958BB759
S113025080648BBF08958BB780688BBF08958BB77C
S113026080628BBF089561110CC081110AC08FB7E1
S113027080688FBF85B7826085BF85B78E7F85BF55
S11302800895613061F481110AC08FB780688FBF0F
S113029085B7826085BF85B7816085BF0895611188
S11302A00CC0813051F48FB780688FBF85B78860E8
S11302B085BF85B78B7F85BF0895613061F4813038
S11302C051F48FB780688FBF85B7846085BF85B7C9
S11302D0886085BF0895611109C0823039F48FB7F1
S11302E080688FBF84B7806484BF0895613041F40F
S11302F0823031F48FB780688FBF84B78F7B84BF1F
S1130300089541E00E944100089541E00E94B10037
S1130310089540E00E94B100089560E081E40E94E5
S1130320810167E081E40E94810180E00E94210153
S113033061E080E00E94330160E081E40E94850175
S11303402FEF89E698E1215080409040E1F700C00A
S1130350000060E081E40E9489012FEF89E698E1C2
S1130360215080409040E1F700C00000E5CF1F928B
S11303700F920FB60F9211242F933F934F935F93D5
S11303806F937F938F939F93AF93BF93EF93FF9359
S113039067E081E40E9485012FEF89E698E121500E
S11303A080409040E1F700C0000067E081E40E94D3
S11303B089012FEF89E698E1215080409040E1F7D0
S11303C000C0000067E081E40E9485012FEF89E608
S11303D098E1215080409040E1F700C0000067E0C0
S11303E081E40E9489012FEF89E698E12150804041
S11303F09040E1F700C0000067E081E40E948501BD
S11304002FEF89E698E1215080409040E1F700C049
S1130410000067E081E40E9489012FEF89E698E1FA
S1130420215080409040E1F700C00000FF91EF911F
S1130430BF91AF919F918F917F916F915F914F91F8
S11304403F912F910F900FBE0F901F901895F89425
S1050450FFCFD8
S9030000FC
