S017000041546D6567613332206472697665722E73726563CD
S11300000C942A000C94C9010C943F000C943F00FA
S11300100C943F000C943F000C943F000C943F0060
S11300200C943F000C943F000C943F000C943F0050
S11300300C943F000C943F000C943F000C943F0040
S11300400C943F000C943F000C943F000C943F0030
S11300500C943F0011241FBECFE5D8E0DEBFCDBF16
S113006010E0A0E6B0E0E4EFF3E002C005900D92EA
S1130070A036B107D9F70E94B9010C94F8010C9489
S11300800000823419F118F4813439F0089583346E
S1130090B1F1843409F44CC00895413059F42AB3C1
S11300A081E090E002C0880F991F6A95E2F7822BE5
S11300B08ABB08952AB381E090E002C0880F991F9B
S11300C06A95E2F7809582238ABB0895413059F4FA
S11300D027B381E090E002C0880F991F6A95E2F788
S11300E0822B87BB089527B381E090E002C0880F7C
S11300F0991F6A95E2F78095822387BB0895413062
S113010059F424B381E090E002C0880F991F6A95E6
S1130110E2F7822B84BB089524B381E090E002C00F
S1130120880F991F6A95E2F78095822384BB08950E
S1130130413059F421B381E090E002C0880F991F47
S11301406A95E2F7822B81BB089521B381E090E0A8
S113015002C0880F991F6A95E2F78095822381BBBC
S11301600895823419F118F4813439F008958334F0
S1130170B1F1843409F44CC00895413059F42BB3DF
S113018081E090E002C0880F991F6A95E2F7822B04
S11301908BBB08952BB381E090E002C0880F991FB8
S11301A06A95E2F7809582238BBB0895413059F418
S11301B028B381E090E002C0880F991F6A95E2F7A6
S11301C0822B88BB089528B381E090E002C0880F99
S11301D0991F6A95E2F78095822388BB0895413080
S11301E059F425B381E090E002C0880F991F6A9505
S11301F0E2F7822B85BB089525B381E090E002C02D
S1130200880F991F6A95E2F78095822385BB08952C
S1130210413059F422B381E090E002C0880F991F65
S11302206A95E2F7822B82BB089522B381E090E0C5
S113023002C0880F991F6A95E2F78095822382BBDA
S11302400895813041F018F0823049F008958BB759
S113025080648BBF08958BB780688BBF08958BB77C
S113026080628BBF08958130A9F120F0823009F4B7
S113027061C00895613021F1C8F0623019F0633033
S113028059F008958FB780688FBF85B78E7F85BF7B
S113029085B78D7F85BF08958FB780688FBF85B779
S11302A0816085BF85B78D7F85BF08958FB78068CE
S11302B08FBF85B78E7F85BF85B7826085BF089560
S11302C08FB780688FBF85B7816085BF85B782602F
S11302D085BF0895613021F1C8F0623019F06330B0
S11302E059F008958FB780688FBF85B78B7F85BF1E
S11302F085B7877F85BF08958FB780688FBF85B71F
S1130300846085BF85B7877F85BF08958FB7806870
S11303108FBF85B78B7F85BF85B7886085BF0895FC
S11303208FB780688FBF85B7846085BF85B78860C5
S113033085BF0895662319F0613041F008958FB7A1
S113034080688FBF84B7806484BF08958FB7806846
S11303508FBF84B78F7B84BF089541E00E94410022
S1130360089541E00E94B100089540E00E94B10068
S1130370089561E083E40E94AD0180E00E942101C0
S113038063E080E00E94330161E083E40E94B101F4
S1130390FBCF1F920F920FB60F9211242F933F930E
S11303A04F935F936F937F938F939F93AF93BF9379
S11303B0EF93FF9361E083E40E94B5012FEF8DE397
S11303C099E4215080409040E1F700C00000FF9183
S11303D0EF91BF91AF919F918F917F916F915F91B9
S11303E04F913F912F910F900FBE0F901F90189532
S10703F0F894FFCFAB
S9030000FC
