S017000041546D6567613332206472697665722E73726563CD
S11300000C942A000C9447000C9447000C9447006D
S11300100C9447000C9447000C9447000C94470040
S11300200C9447000C9447000C9447000C94470030
S11300300C9447000C9447000C9447000C94470020
S11300400C9447000C9447000C9447000C94470010
S11300500C94470011241FBECFE5D8E0DEBFCDBF0E
S113006010E0A0E6B0E0EEE4F1E002C005900D92ED
S1130070A036B107D9F720E0A0E6B0E001C01D9298
S1130080A236B207E1F70E949A000C94A5000C94E2
S1130090000097B1906497B98823B1F1813021F4BD
S11300A087B1816087B930C0823021F487B1826022
S11300B087B92AC0833039F487B1816087B987B1A1
S11300C0826087B921C0843021F487B1846087B904
S11300D01BC0853039F487B1816087B987B18460EA
S11300E087B912C0863039F487B1826087B987B185
S11300F0846087B909C087B1816087B987B182609C
S113010087B987B1846087B986B1806886B986B1BA
S1130110846086B986B1826086B9089586B18064A8
S113012086B93699FECF24B185B190E0982F8827FF
S1130130822B089580E00E94490080E00E948E0096
S11101409093610080936000F8CFF894FFCF95
S9030000FC
