S017000041546D6567613332206472697665722E73726563CD
S11300000C942A000C943F000C943F000C943F0085
S11300100C943F000C943F000C943F000C943F0060
S11300200C943F000C943F000C943F000C943F0050
S11300300C943F000C943F000C943F000C943F0040
S11300400C943F000C943F000C943F000C943F0030
S11300500C943F0011241FBECFE5D8E0DEBFCDBF16
S113006010E0A0E6B0E0EEE8F4E002C005900D92E6
S1130070AA36B107D9F70E94E0010C9445020C940A
S113008000006FEF0E94AE010895CF93DF93CDB7C8
S1130090DEB72A970FB6F894DEBF0FBECDBF9AE045
S11300A0E0E6F0E0DE01119601900D929A95E1F7F9
S11300B0E1E0F0E0EC0FFD1FE60FF11D60810E940E
S11300C0C1012A960FB6F894DEBF0FBECDBFDF91F3
S11300D0CF91089540E00E94710008950E9451015B
S11300E00895823419F118F4813439F00895833471
S11300F0B1F1843409F44CC00895413059F42AB361
S113010081E090E002C0880F991F6A95E2F7822B84
S11301108ABB08952AB381E090E002C0880F991F3A
S11301206A95E2F7809582238ABB0895413059F499
S113013027B381E090E002C0880F991F6A95E2F727
S1130140822B87BB089527B381E090E002C0880F1B
S1130150991F6A95E2F78095822387BB0895413001
S113016059F424B381E090E002C0880F991F6A9586
S1130170E2F7822B84BB089524B381E090E002C0AF
S1130180880F991F6A95E2F78095822384BB0895AE
S1130190413059F421B381E090E002C0880F991FE7
S11301A06A95E2F7822B81BB089521B381E090E048
S11301B002C0880F991F6A95E2F78095822381BB5C
S11301C00895823419F118F4813439F00895833490
S11301D0B1F1843409F44CC00895413059F42BB37F
S11301E081E090E002C0880F991F6A95E2F7822BA4
S11301F08BBB08952BB381E090E002C0880F991F58
S11302006A95E2F7809582238BBB0895413059F4B7
S113021028B381E090E002C0880F991F6A95E2F745
S1130220822B88BB089528B381E090E002C0880F38
S1130230991F6A95E2F78095822388BB089541301F
S113024059F425B381E090E002C0880F991F6A95A4
S1130250E2F7822B85BB089525B381E090E002C0CC
S1130260880F991F6A95E2F78095822385BB0895CC
S1130270413059F422B381E090E002C0880F991F05
S11302806A95E2F7822B82BB089522B381E090E065
S113029002C0880F991F6A95E2F78095822382BB7A
S11302A008958234E9F018F4813431F055C0833470
S11302B059F18434E9F150C049B381E090E09C01E4
S11302C0062E02C0220F331F0A94E2F7842F90E017
S11302D08223932302C0959587956A95E2F7089542
S11302E046B381E090E09C01062E02C0220F331F2A
S11302F00A94E2F7842F90E08223932302C0959519
S113030087956A95E2F7089543B381E090E09C01F4
S1130310062E02C0220F331F0A94E2F7842F90E0C6
S11303208223932302C0959587956A95E2F70895F1
S113033040B381E090E09C01062E02C0220F331FDF
S11303400A94E2F7842F90E08223932302C09595C8
S113035087956A95E2F7089580E00895823459F00C
S113036018F4813431F00895833439F0843439F049
S113037008956ABB089567BB089564BB089561BB83
S11303800895823459F018F4813431F00895833497
S113039039F0843439F008956BBB089568BB08952F
S11303A065BB089562BB089541E00E947100089501
S11303B041E00E94E100089540E00E94E1000895B8
S11303C084E40E94410083E40E94410060E081E4EF
S11303D00E946A0060E082E40E946A0067E082E4AE
S11303E00E94D40160E081E40E946E0060E082E437
S11303F00E946E0060E083E40E94450060E084E4B3
S11304000E944500C0E0D0E067E082E40E94DC0185
S113041060E081E40E946E008130D1F42FEF84E328
S11304209CE0215080409040E1F700C00000CF5F85
S11304306C2F83E40E944500C93050F060E083E4EF
S11304400E944500DF5F6D2F84E40E944500C0E0F8
S113045060E082E40E946E008130B1F69D2F990F16
S1130460892F880F880F890F8C0F893169F667E00F
S113047082E40E94D8012FEF8DE399E4215080405B
S11104809040E1F700C00000BFCFF894FFCF1A
S10D048E3F065B4F666D7D477F6FEC
S9030000FC
