S017000041546D6567613332206472697665722E73726563CD
S11300000C943E000C94E0030C9479040C94E604E4
S11300100C9453000C9453000C9453000C94530010
S11300200C9453000C9453000C9453000C94530000
S11300300C9453000C9453000C9453000C945300F0
S11300400C9453000C9453000C9453000C945300E0
S11300500C9453009100A500B900CD00E100F50017
S113006009011D013101450166017A018E01A201D8
S1130070B601CA01DE01F20106021A0211241FBEF2
S1130080CFE5D8E0DEBFCDBF10E0A0E6B0E0E4E904
S1130090FAE002C005900D92A036B107D9F70E948C
S11300A0A7030C9448050C940000CF93C82F61114A
S11300B013C041E00E942F0241E061E08C2F0E94B6
S11300C02F0241E062E08C2F0E942F0241E063E0A6
S11300D08C2F0E942F0215C0613099F441E064E036
S11300E00E942F0241E065E08C2F0E942F0241E024
S11300F066E08C2F0E942F0241E067E08C2F0E9463
S11301002F02CF910895CF93C82F6111D2C050E030
S11301104A30510508F0A1C1FA01E65DFF4F0C9485
S1130120420540E060E00E949F0240E061E08C2FC5
S11301300E949F0240E062E08C2F0E949F0240E0F8
S113014063E08C2F0E949F0288C141E060E00E941E
S11301509F0240E061E08C2F0E949F0240E062E039
S11301608C2F0E949F0240E063E08C2F0E949F022C
S113017074C140E060E00E949F0241E061E08C2F86
S11301800E949F0240E062E08C2F0E949F0240E0A8
S113019063E08C2F0E949F0260C141E060E00E94F6
S11301A09F0241E061E08C2F0E949F0240E062E0E8
S11301B08C2F0E949F0240E063E08C2F0E949F02DC
S11301C04CC140E060E00E949F0240E061E08C2F5F
S11301D00E949F0241E062E08C2F0E949F0240E057
S11301E063E08C2F0E949F0238C141E060E00E94CE
S11301F09F0240E061E08C2F0E949F0241E062E098
S11302008C2F0E949F0240E063E08C2F0E949F028B
S113021024C140E060E00E949F0241E061E08C2F35
S11302200E949F0241E062E08C2F0E949F0240E006
S113023063E08C2F0E949F0210C141E060E00E94A5
S11302409F0241E061E08C2F0E949F0241E062E046
S11302508C2F0E949F0240E063E08C2F0E949F023B
S1130260FCC040E060E00E949F0240E061E08C2F0F
S11302700E949F0240E062E08C2F0E949F0241E0B6
S113028063E08C2F0E949F02E8C041E060E00E947E
S11302909F0240E061E08C2F0E949F0240E062E0F8
S11302A08C2F0E949F0241E063E08C2F0E949F02EA
S11302B0D4C0613009F0D1C050E04A30510508F093
S11302C0CCC0FA01EC5CFF4F0C94420540E064E0C2
S11302D00E949F0240E065E08C2F0E949F0240E054
S11302E066E08C2F0E949F0240E067E08C2F0E9402
S11302F09F02B3C041E064E00E949F0240E065E0D9
S11303008C2F0E949F0240E066E08C2F0E949F0287
S113031040E067E08C2F0E949F029FC040E064E0B1
S11303200E949F0241E065E08C2F0E949F0240E002
S113033066E08C2F0E949F0240E067E08C2F0E94B1
S11303409F028BC041E064E00E949F0241E065E0AF
S11303508C2F0E949F0240E066E08C2F0E949F0237
S113036040E067E08C2F0E949F0277C040E064E089
S11303700E949F0240E065E08C2F0E949F0241E0B2
S113038066E08C2F0E949F0240E067E08C2F0E9461
S11303909F0263C041E064E00E949F0240E065E088
S11303A08C2F0E949F0241E066E08C2F0E949F02E6
S11303B040E067E08C2F0E949F024FC040E064E061
S11303C00E949F0241E065E08C2F0E949F0241E061
S11303D066E08C2F0E949F0240E067E08C2F0E9411
S11303E09F023BC041E064E00E949F0241E065E05F
S11303F08C2F0E949F0241E066E08C2F0E949F0296
S113040040E067E08C2F0E949F0227C040E064E038
S11304100E949F0240E065E08C2F0E949F0240E012
S113042066E08C2F0E949F0241E067E08C2F0E94BF
S11304309F0213C041E064E00E949F0240E065E037
S11304408C2F0E949F0240E066E08C2F0E949F0246
S113045041E067E08C2F0E949F02CF91089582347F
S113046019F118F4813439F008958334B1F18434E6
S113047009F44CC00895413059F42AB381E090E066
S113048002C0880F991F6A95E2F7822B8ABB0895F0
S11304902AB381E090E002C0880F991F6A95E2F7C1
S11304A0809582238ABB0895413059F427B381E0B3
S11304B090E002C0880F991F6A95E2F7822B87BBF0
S11304C0089527B381E090E002C0880F991F6A95D0
S11304D0E2F78095822387BB0895413059F424B311
S11304E081E090E002C0880F991F6A95E2F7822BA1
S11304F084BB089524B381E090E002C0880F991F63
S11305006A95E2F78095822384BB0895413059F4BB
S113051021B381E090E002C0880F991F6A95E2F749
S1130520822B81BB089521B381E090E002C0880F43
S1130530991F6A95E2F78095822381BB08958234DE
S113054019F118F4813439F008958334B1F1843405
S113055009F44CC00895413059F42BB381E090E084
S113056002C0880F991F6A95E2F7822B8BBB08950E
S11305702BB381E090E002C0880F991F6A95E2F7DF
S1130580809582238BBB0895413059F428B381E0D0
S113059090E002C0880F991F6A95E2F7822B88BB0E
S11305A0089528B381E090E002C0880F991F6A95EE
S11305B0E2F78095822388BB0895413059F425B32E
S11305C081E090E002C0880F991F6A95E2F7822BC0
S11305D085BB089525B381E090E002C0880F991F80
S11305E06A95E2F78095822385BB0895413059F4DA
S11305F022B381E090E002C0880F991F6A95E2F768
S1130600822B82BB089522B381E090E002C0880F60
S1130610991F6A95E2F78095822382BB0895813001
S113062041F018F0823049F008958BB780648BBF95
S113063008958BB780688BBF08958BB780628BBF9A
S113064008958130A9F120F0823009F461C0089541
S1130650613021F1C8F0623019F0633059F0089527
S11306608FB780688FBF85B78E7F85BF85B78D7F35
S113067085BF08958FB780688FBF85B7816085BFB8
S113068085B78D7F85BF08958FB780688FBF85B785
S11306908E7F85BF85B7826085BF08958FB78068D8
S11306A08FBF85B7816085BF85B7826085BF089598
S11306B0613021F1C8F0623019F0633059F00895C7
S11306C08FB780688FBF85B78B7F85BF85B7877FDE
S11306D085BF08958FB780688FBF85B7846085BF55
S11306E085B7877F85BF08958FB780688FBF85B72B
S11306F08B7F85BF85B7886085BF08958FB7806875
S11307008FBF85B7846085BF85B7886085BF08952E
S1130710662319F0613041F008958FB780688FBF68
S113072084B7806484BF08958FB780688FBF84B70F
S11307308F7B84BF089541E00E942F02089541E019
S11307400E949F02089540E00E949F02089561E084
S113075081E40E949B0364E081E40E949B0367E0C0
S113076081E40E949B0360E083E40E94550080E0E2
S11307700E940F0360E080E00E94210381E00E9458
S11307800F0360E081E00E94210382E00E940F03D6
S113079060E082E00E942103C0E00FC04C2F60E0C3
S11307A083E40E9483002FEF84E39CE02150804087
S11307B09040E1F700C00000CF5FCA3078F3ECCF7F
S11307C01F920F920FB60F9211242F933F934F93C2
S11307D05F936F937F938F939F93AF93BF93CF93C5
S11307E0EF93FF93C0E023C061E081E40E949F0384
S11307F064E081E40E94A30367E081E40E94A30310
S11308002FEF80E792E0215080409040E1F700C054
S1130810000061E081E40E94A3032FEF80E792E0EF
S1130820215080409040E1F700C00000CF5FC43009
S1130830D8F2C0E023C061E081E40E94A30364E035
S113084081E40E949F0367E081E40E94A3032FEFE9
S113085080E792E0215080409040E1F700C0000022
S113086064E081E40E94A3032FEF80E792E021502B
S113087080409040E1F700C00000CF5FC430D8F260
S1130880C0E023C061E081E40E94A30364E081E44A
S11308900E94A30367E081E40E949F032FEF80E797
S11308A092E0215080409040E1F700C0000067E0F2
S11308B081E40E94A3032FEF80E792E0215080405F
S11308C09040E1F700C00000CF5FC430D8F2FF9140
S11308D0EF91CF91BF91AF919F918F917F916F9144
S11308E05F914F913F912F910F900FBE0F901F90EA
S11308F018951F920F920FB60F9211242F933F93C6
S11309004F935F936F937F938F939F93AF93BF9313
S1130910EF93FF9361E081E40E949F0364E081E42C
S11309200E94A30367E081E40E94A3032FEF83EDF9
S113093090E3215080409040E1F700C0000061E066
S113094081E40E94A30364E081E40E949F0367E0C2
S113095081E40E94A3032FEF89E698E121508040AF
S11309609040E1F700C0000061E081E40E94A3032D
S113097064E081E40E94A30367E081E40E949F0392
S11309802FEF83ED90E3215080409040E1F700C0C9
S1130990000061E081E40E94A30364E081E40E941A
S11309A0A30367E081E40E94A303FF91EF91BF9149
S11309B0AF919F918F917F916F915F914F913F91F3
S11309C02F910F900FBE0F901F9018951F920F92AA
S11309D00FB60F9211242F933F934F935F936F930E
S11309E07F938F939F93AF93BF93CF93EF93FF9393
S11309F0C0E034C061E081E40E949F032FE789EAEC
S1130A0093E0215080409040E1F700C0000061E095
S1130A1081E40E94A30364E081E40E949F032FE722
S1130A2089EA93E0215080409040E1F700C0000043
S1130A3064E081E40E94A30367E081E40E949F03D1
S1130A402FE789EA93E0215080409040E1F700C00D
S1130A50000067E081E40E94A303CF5FCA3050F234
S1130A60FF91EF91CF91BF91AF919F918F917F9122
S1130A706F915F914F913F912F910F900FBE0F9007
S1130A801F901895EE0FFF1F0590F491E02D099427
S1070A90F894FFCF04
S9030000FC
